:100000000C94EE000C940F010C940F010C940F0152
:100010000C940F010C940F010C940F010C940F0120
:100020000C940F010C940F010C940F010C940F0110
:100030000C940F010C940F010C940F010C940F0100
:100040000C940F010C940F010C940F010C940F01F0
:100050000C940F010C940F010C940F010C940F01E0
:100060000C940F010C940F010C940F010C940F01D0
:100070000C940F010C940F010C940F010C940F01C0
:100080000C940F010C940F010C940F010C940F01B0
:100090000C940F010C940F010C940F010C940F01A0
:1000A0000C940F010C940F010C940F010C940F0190
:1000B0000C940F010C940F010C940F010C940F0180
:1000C0000C940F010C940F010C940F010C940F0170
:1000D0000C940F010C940F010C940F010C940F0160
:1000E0000C940F010C940F010C940F010C940F0150
:1000F0000C940F010C940F010C940F010C940F0140
:100100000C940F010C940F010C940F010C940F012F
:100110000C940F010C940F010C940F010C940F011F
:100120000C940F010C940F010C940F010C940F010F
:100130000C940F010C940F010C940F010C940F01FF
:100140000C940F010C940F010C940F010C940F01EF
:100150000C940F010C940F010C940F010C940F01DF
:100160000C940F010C940F010C940F010C940F01CF
:100170000C940F010C940F010C940F010C940F01BF
:100180000C940F010C940F010C940F010C940F01AF
:100190000C940F010C940F010C940F010C940F019F
:1001A0000C940F010C940F010C940F010C940F018F
:1001B0000C940F010C940F010C940F010C940F017F
:1001C0000C940F010C940F010C9411010C94170165
:1001D0000C9445010C941B010C94130111241FBEB7
:1001E000CFEFCDBFDFE3DEBF00E00CBF12E2A0E047
:1001F000B0E2E8E9FCE000E00BBF02C007900D921E
:10020000AC32B107D9F723E2ACE2B2E201C01D92F1
:10021000A432B207E1F70E94FA050C944A060C9446
:10022000000080E008950E94F90580E008950E9492
:10023000F50580E008950F931F93CF93DF931F92EE
:10024000CDB7DEB78C0181E0809305061982F801F5
:10025000908181E189279981981720F499819F5F86
:100260009983F9CFC8010E94F70581E080930606C3
:10027000A80160E170E082E70E94B60180E00F9083
:10028000DF91CF911F910F91089580E00895DB01D8
:10029000FA019F01241B350B28173907D4F52C913F
:1002A00011963C91119760ED630F6A3010F46083F2
:1002B0000FC06FEB630F663010F4375308C06FE95F
:1002C000630F663018F081E090E008953755308371
:1002D00030ED320F3A3018F42295207F14C03FEBF6
:1002E000320F363020F430E02753310907C03FE9A0
:1002F000320F363040F730E02755310964E0220FE5
:10030000331F6A95E1F73081232B208331961296B3
:10031000C0CF80E090E0089520912C2230912D22D2
:100320002A303105CCF460347105B0F495E0929F29
:10033000F001939FF00D1124E25DFD4D80836183F8
:100340007283438354832F5F3F4F20932C2230933B
:100350002D2280E090E0089581E090E0089545E44A
:1003600051E060E070E086E70C948C01CF92DF9260
:10037000EF92FF920F931F93CF93DF938B01EA01CC
:100380000E94B5027E01C7018C1B9D0B801791074F
:10039000B4F46701D701ED917D01E295EF70F0E0D3
:1003A000E55EFD4D80810E94B502D601EC91EF70B3
:1003B000F0E0E55EFD4D80810E94B502E4CF8AE069
:1003C000DF91CF911F910F91FF90EF90DF90CF9031
:1003D0000C94B502AF92BF92CF92DF92EF92FF9250
:1003E0000F931F93CF93DF93CDB7DEB7C15CD109D5
:1003F000CDBFDEBF0E94AE0240912C2250912D2233
:100400002EE232E200E010E00417150754F42B5FEF
:100410003F4FF90135979081891739F00F5F1F4FD2
:10042000F3CF0417150709F454C09E012F5F3F4F07
:100430007901690125E0209FC001219F900D1124C1
:10044000DC01A15DBD4D5D01D5018D919C91880FB1
:10045000991F96012E193F092817390750F40E9459
:10046000AE028A30B1F18D30A1F1F60181936F01B6
:10047000EBCF0E94AE028A3011F08D3051F525E0AD
:10048000209FC001219F900D11248C01025D1D4D04
:10049000AE014F575F4FB701F801818192810E94F1
:1004A0004701892BB1F4D8011396ED91FC91149773
:1004B000CE018F579F4F1995CF53DF4F8883C15C73
:1004C000D040AE014F535F4F61E070E08AE70E9479
:1004D000B601CF53DF4FCDBFDEBFDF91CF911F916C
:1004E0000F91FF90EF90DF90CF90BF90AF90089565
:1004F000E0E4F6E088E0818384E08283E0EAF8E0EB
:1005000083E085838BE08683178284818061848386
:100510008481886084830895CF93DF931F921F9214
:10052000CDB7DEB769837A8320E030E049815A8114
:100530002417350769F04091A10847FF06C02091B4
:10054000A008FC01208381E004C02F5F3F4FEECF65
:1005500080E00F900F90DF91CF9108958091A108D6
:1005600087FFFCCF8091A00808959091A10895FF86
:10057000FCCF8093A0080895FC01608371834283BF
:1005800014861386168615860895FC0162830895E5
:10059000FC01958526859F5F937081E0921301C0D1
:1005A00080E008951F93CF93DF93EC01162F0E94F4
:1005B000C802882379F09D85FE01E90FF11D17839C
:1005C0009F5F93709D87E881F98193819C7F2A8149
:1005D000922B9383DF91CF911F910895FC01238586
:1005E000948581E0291301C080E00895FC01848591
:1005F000DF01A80FB11D13968C9194859F5F9370B6
:1006000094870895FC0183858F5F83702485A08182
:10061000B1819C91821749F02385DF01A20FB11DA2
:1006200013969C93838781E0089580E00895CF938B
:10063000DF93FC0196858585A081B181981307C061
:1006400013968C9113978C7F13968C930AC0868592
:10065000EF01C80FD11D8F818C9386858F5F8370CA
:100660008687DF91CF910895FC01848170FF02C0DD
:10067000816001C08E7F848360830895FC01848142
:1006800080FF04C0808190E091600895808190E0B7
:100690000895109252001092550080915000886089
:1006A000809350008091510083FFFCCF88ED84BF80
:1006B00083E08093400088E08093500008958F92FB
:1006C0009F92AF92BF92FF920F931F93CF93DF93AE
:1006D00000D01F92CDB7DEB7609160227091612289
:1006E000E2E6F2E29B01205F3F4FCF01DB014C913C
:1006F000DC014C93DB0111964C91DC0111964C937B
:10070000DB0112964C91DC0112964C93DB0113969F
:100710004C91DC0113964C936C5F7F4F04966217EB
:10072000730721F794E0892E912CA12CB12CBE01E6
:100730006B5F7F4FAF01445F5F4F9E012F5F3F4F65
:10074000DA011D91AD01D9011D939D016A177B0747
:10075000B9F7950184010370112722273327012B54
:10076000022B032B51F529814C810A8110E0055F92
:100770001E4DD801FC900B8110E0055F1E4DD80185
:100780003C913A8350E0455F5E4DDA013C913B83FA
:1007900030E0255F3E4DD9012C912C8395018401D9
:1007A00082E036952795179507958A95D1F70050E1
:1007B000104ED8012C912F252983308129812327A0
:1007C000208B31812A812327218B32812B81232782
:1007D000228B33812C812327238BBFEF8B1A9B0A1B
:1007E000AB0ABB0A34968CE288169104A104B104CA
:1007F00009F0A0CF2496CDBFDEBFDF91CF911F912E
:100800000F91FF90BF90AF909F908F900895CF93DE
:10081000DF93609112237091132390E1899FE0018F
:10082000112420E030E0F901EC0FFD1FEE59FD4DE1
:10083000DB01A20FB31F90E041918C9148274D93AB
:100840009F5F9430C9F72C5F3F4F2031310559F736
:10085000DF91CF910895209112233091132394E0DA
:10086000D90180E0EC91F0E0E55FFE4D40814C93D2
:100870008F5F14968430B1F791502F5F3F4F9111E5
:10088000EFCF0895E0911223F09113238181958198
:1008900091839185958395859187858782819285BE
:1008A00092838287868196859683868783819785C2
:1008B0009383938597879781938787830895982F4C
:1008C000991F9927991F2BE1929F902D1124880F32
:1008D00089270895209112233091132394E0D901A0
:1008E00080E0EC91F0E0E55FFF4D40814C938F5F3D
:1008F00014968430B1F791502F5F3F4F9111EFCF95
:100900000895E0911223F0911323858591859587B1
:10091000958191879181958381838281928592834C
:100920008287868196859683868783819781938344
:100930009385978397859387878708959F92AF9232
:10094000BF92CF92DF92EF92FF920F931F93CF93BC
:10095000DF9380E00E940704BB24B3940E942B0421
:100960000E944204C0911223D09113237E0180E1A2
:10097000E80EF11CA88009818A2D80271A81CB807E
:10098000912E9C24D82ED9240E945F048A258D257F
:100990008883802F81270E945F048027082F0D25E0
:1009A0000983892D0E945F048127182F1D251A8332
:1009B0008A2D8C250E945F048C25D826DB82249604
:1009C000CE15DF05B9F68B2D0E940704B3948AE09B
:1009D000B812C4CF0E942B040E9442048AE0DF9127
:1009E000CF911F910F91FF90EF90DF90CF90BF902C
:1009F000AF909F900C9407048093602290936122A3
:100A00000C945F0380931223909313230C949E0401
:100A1000CF93DF93FA019C01205F3F4FEC01A99136
:100A2000CE01A193C217D307C9F740931223509365
:100A3000132360936022709361220E945F03DF9111
:100A4000CF910C949E042F923F924F925F926F929F
:100A50007F928F929F92AF92BF92CF92DF92EF924E
:100A6000FF920F931F93CF93DF9300D000D0CDB7A9
:100A7000DEB75A019C01205F3F4FFA01DC014D9126
:100A8000CD0141932A173B07C9F7A0921223B092D8
:100A9000132360936022709361220E945F038AE0B7
:100AA0000E94070489E0382EF5017096EB83FC83E1
:100AB0000E9481040E946A04832D0E94070485011C
:100AC000D801BC91B983F801F181FA83D80112965B
:100AD000DC9012971396FC9089810E945F04282E67
:100AE0000E945F04E82E0E945F04882E8A810E9483
:100AF0005F048D830E945F04582E0E945F04982E2D
:100B00008D2D0E945F04482E0E945F048E830E94F8
:100B10005F04C82E8F2D0E945F04682E0E945F0420
:100B2000782E0E945F04922D9E259825BD819B27DB
:100B30009925EE819E279C259827FA819F279D2540
:100B40009F25D8019C939D819825952599259425CD
:100B50009C2597259827B9819B279D259F25F801DE
:100B600091839B2FFA819F27E824E9244E242E812C
:100B700024252C2526252827F226F926D801129689
:100B8000FC921297822485249824C924C6247C24AC
:100B90008725D826D9261396DC920C5F1F4FEB8150
:100BA000FC81E017F10709F08BCF3A94311080CF28
:100BB0000E9481040E946A0480E02696CDBFDEBFB9
:100BC000DF91CF911F910F91FF90EF90DF90CF9029
:100BD000BF90AF909F908F907F906F905F904F905D
:100BE0003F902F900C94070408950C94FC040C94EF
:100BF00002050895CF93DF93CDB7DEB76097CDBFE1
:100C0000DEBF80E1EBE0F2E2DE01119601900D9291
:100C10008A95E1F70E9449030E94780281E080935F
:100C200001060E94F405CE0101960E94F50588E6B2
:100C30000E94B50285E60E94B5028CE60E94B502CC
:100C40008CE60E94B5028FE60E94B5028AE00E94FF
:100C5000B5020E94AF0147E151E060E170E08BE630
:100C60000E948C014BE151E060E170E080E70E945E
:100C70008C0141E151E060E070E088E70E948C0166
:100C800043E151E062E170E08DE60E948C010E9438
:080C9000EA01FDCFF894FFCF4B
:100C98008D01020408102040801B3652096AD530A5
:100CA80036A538BF40A39E81F3D7FB7CE339829BEE
:100CB8002FFF87348E4344C4DEE9CB547B9432A69D
:100CC800C2233DEE4C950B42FAC34E082EA166286E
:100CD800D924B2765BA2496D8BD12572F8F6648669
:100CE800689816D4A45CCC5D65B6926C704850FDCB
:100CF800EDB9DA5E154657A78D9D8490D8AB008C68
:100D0800BCD30AF7E45805B8B34506D02C1E8FCAE1
:100D18003F0F02C1AFBD0301138A6B3A9111414FD6
:100D280067DCEA97F2CFCEF0B4E67396AC7422E7AC
:100D3800AD3585E2F937E81C75DF6E47F11A711D8C
:100D480029C5896FB7620EAA18BE1BFC563E4BC652
:100D5800D279209ADBC0FE78CD5AF41FDDA83388FB
:100D680007C731B11210592780EC5F60517FA9196C
:100D7800B54A0D2DE57A9F93C99CEFA0E03B4DAE97
:100D88002AF5B0C8EBBB3C83539961172B047EBA94
:100D980077D626E169146355210C7D637C777BF255
:100DA8006B6FC53001672BFED7AB76CA82C97DFA57
:100DB8005947F0ADD4A2AF9CA472C0B7FD932636B4
:100DC8003FF7CC34A5E5F171D8311504C723C31812
:100DD80096059A071280E2EB27B27509832C1A1B35
:100DE8006E5AA0523BD6B329E32F8453D100ED208D
:100DF800FCB15B6ACBBE394A4C58CFD0EFAAFB4353
:100E08004D338545F9027F503C9FA851A3408F92EE
:100E18009D38F5BCB6DA2110FFF3D2CD0C13EC5F88
:100E2800974417C4A77E3D645D197360814FDC2227
:100E38002A908846EEB814DE5E0BDBE0323A0A49A7
:100E480006245CC2D3AC629195E479E7C8376D8D0E
:100E5800D54EA96C56F4EA657AAE08BA78252E1CE8
:100E6800A6B4C6E8DD741F4BBD8B8A703EB56648D4
:100E780003F60E613557B986C11D9EE1F8981169D0
:100E8800D98E949B1E87E9CE5528DF8CA1890DBF8A
:100E9800E6426841992D0FB054BB162B7E151628D3
:100EA800AED2A6ABF7158809CF4F3C303132333478
:0C0EB80035363738394142434445460086
:00000001FF
