:100000000C94EE000C940F010C940F010C940F0152
:100010000C940F010C940F010C940F010C940F0120
:100020000C940F010C940F010C940F010C940F0110
:100030000C940F010C940F010C940F010C940F0100
:100040000C940F010C940F010C940F010C940F01F0
:100050000C940F010C940F010C940F010C940F01E0
:100060000C940F010C940F010C940F010C940F01D0
:100070000C940F010C940F010C940F010C940F01C0
:100080000C940F010C940F010C940F010C940F01B0
:100090000C940F010C940F010C940F010C940F01A0
:1000A0000C940F010C940F010C940F010C940F0190
:1000B0000C940F010C940F010C940F010C940F0180
:1000C0000C940F010C940F010C940F010C940F0170
:1000D0000C940F010C940F010C940F010C940F0160
:1000E0000C940F010C940F010C940F010C940F0150
:1000F0000C940F010C940F010C940F010C940F0140
:100100000C940F010C940F010C940F010C940F012F
:100110000C940F010C940F010C940F010C940F011F
:100120000C940F010C940F010C940F010C940F010F
:100130000C940F010C940F010C940F010C940F01FF
:100140000C940F010C940F010C940F010C940F01EF
:100150000C940F010C940F010C940F010C940F01DF
:100160000C940F010C940F010C940F010C940F01CF
:100170000C940F010C940F010C940F010C940F01BF
:100180000C940F010C940F010C940F010C940F01AF
:100190000C940F010C940F010C940F010C940F019F
:1001A0000C940F010C940F010C940F010C940F018F
:1001B0000C940F010C940F010C940F010C940F017F
:1001C0000C940F010C940F010C9411010C94170165
:1001D0000C9447010C941B010C94130111241FBEB5
:1001E000CFEFCDBFDFE3DEBF00E00CBF12E2A0E047
:1001F000B0E2E4EAFCE000E00BBF02C007900D9221
:10020000AC32B107D9F723E2ACE2B2E201C01D92F1
:10021000A432B207E1F70E94FC050C9450060C943E
:10022000000080E008950E94FB0580E008950E9490
:10023000F70580E008950F931F93CF93DF931F92EC
:10024000CDB7DEB78C0181E0809305061982F801F5
:100250008081817190E0298130E02817390724F4EA
:1002600029812F5F2983F7CFC8010E94F90581E01A
:1002700080930606A80160E170E082E70E94B80161
:1002800080E00F90DF91CF911F910F91089580E052
:100290000895DB01FA019F01241B350B281739074C
:1002A000D4F52C9111963C91119760ED630F6A3053
:1002B00010F460830FC06FEB630F663010F4375398
:1002C00008C06FE9630F663018F081E090E0089590
:1002D0003755308330ED320F3A3018F42295207FB5
:1002E00014C03FEB320F363020F430E02753310991
:1002F00007C03FE9320F363040F730E0275531096B
:1003000064E0220F331F6A95E1F73081232B2083AD
:1003100031961296C0CF80E090E0089520912C2273
:1003200030912D222A303105CCF460347105B0F4BF
:1003300095E0929FF001939FF00D1124E25DFD4D39
:10034000808361837283438354832F5F3F4F209365
:100350002C2230932D2280E090E0089581E090E0FF
:10036000089547E451E060E070E086E70C948E0168
:10037000CF92DF92EF92FF920F931F93CF93DF9371
:100380008B01EA010E94B7027E01C7018C1B9D0B05
:1003900080179107B4F46701D701ED917D01E295D3
:1003A000EF70F0E0E55EFD4D80810E94B702D6015E
:1003B000EC91EF70F0E0E55EFD4D80810E94B702A8
:1003C000E4CF8AE0DF91CF911F910F91FF90EF90E2
:1003D000DF90CF900C94B702AF92BF92CF92DF9292
:1003E000EF92FF920F931F93CF93DF93CDB7DEB7BA
:1003F000C15CD109CDBFDEBF0E94B00240912C226A
:1004000050912D222EE232E200E010E00417150791
:1004100054F42B5F3F4FF90135979081891739F0DC
:100420000F5F1F4FF3CF0417150709F454C09E0147
:100430002F5F3F4F7901690125E0209FC001219F77
:10044000900D1124DC01A15DBD4D5D01D5018D91A3
:100450009C91880F991F96012E193F09281739077B
:1004600050F40E94B0028A30B1F18D30A1F1F60152
:1004700081936F01EBCF0E94B0028A3011F08D3072
:1004800051F525E0209FC001219F900D11248C0182
:10049000025D1D4DAE014F575F4FB701F8018181DD
:1004A00092810E944901892BB1F4D8011396ED91F4
:1004B000FC911497CE018F579F4F1995CF53DF4F63
:1004C0008883C15CD040AE014F535F4F61E070E064
:1004D0008AE70E94B801CF53DF4FCDBFDEBFDF9167
:1004E000CF911F910F91FF90EF90DF90CF90BF9031
:1004F000AF900895E0E4F6E088E0818384E08283B1
:10050000E0EAF8E083E085838BE0868317828481CC
:10051000806184838481886084830895CF93DF938E
:100520001F921F92CDB7DEB769837A8320E030E057
:1005300049815A812417350769F04091A10847FF86
:1005400006C02091A008FC01208381E004C02F5F39
:100550003F4FEECF80E00F900F90DF91CF91089545
:100560008091A10887FFFCCF8091A0080895909109
:10057000A10895FFFCCF8093A0080895FC0160833B
:100580007183428314861386168615860895FC01AE
:1005900062830895FC01958526859F5F937081E0B5
:1005A000921301C080E008951F93CF93DF93EC0175
:1005B000162F0E94CA02882379F09D85FE01E90F5B
:1005C000F11D17839F5F93709D87E881F981938167
:1005D0009C7F2A81922B9383DF91CF911F91089565
:1005E000FC012385948581E0291301C080E00895F2
:1005F000FC018485DF01A80FB11D13968C919485B1
:100600009F5F937094870895FC0183858F5F83704B
:100610002485A081B1819C91821749F02385DF0157
:10062000A20FB11D13969C93838781E0089580E00B
:100630000895CF93DF93FC0196858585A081B181D4
:10064000981307C013968C9113978C7F13968C93F5
:100650000AC08685EF01C80FD11D8F818C938685D6
:100660008F5F83708687DF91CF910895FC0184812D
:1006700070FF02C0816001C08E7F84836083089513
:10068000FC01848180FF04C0808190E09160089526
:10069000808190E008951092520010925500809150
:1006A00050008860809350008091510083FFFCCF00
:1006B00088ED84BF83E08093400088E08093500001
:1006C00008958F929F92AF92BF92FF920F931F93C4
:1006D000CF93DF9300D01F92CDB7DEB76091602239
:1006E00070916122E2E6F2E29B01205F3F4FCF0171
:1006F000DB014C91DC014C93DB0111964C91DC0148
:1007000011964C93DB0112964C91DC0112964C939E
:10071000DB0113964C91DC0113964C936C5F7F4F79
:1007200004966217730721F794E0892E912CA12C6F
:10073000B12CBE016B5F7F4FAF01445F5F4F9E01E5
:100740002F5F3F4FDA011D91AD01D9011D939D012E
:100750006A177B07B9F795018401037011272227D7
:100760003327012B022B032B51F529814C810A8160
:1007700010E0055F1E4DD801FC900B8110E0055F75
:100780001E4DD8013C913A8350E0455F5E4DDA0141
:100790003C913B8330E0255F3E4DD9012C912C8369
:1007A0009501840182E036952795179507958A95DE
:1007B000D1F70050104ED8012C912F25298330817C
:1007C00029812327208B31812A812327218B328184
:1007D0002B812327228B33812C812327238BBFEF6F
:1007E0008B1A9B0AAB0ABB0A34968CE288169104DA
:1007F000A104B10409F0A0CF2496CDBFDEBFDF91E4
:10080000CF911F910F91FF90BF90AF909F908F90CD
:100810000895CF93DF93609112237091132390E199
:10082000899FE001112420E030E0F901EC0FFD1F69
:10083000EE59FD4DDB01A20FB31F90E041918C9169
:1008400048274D939F5F9430C9F72C5F3F4F20316D
:10085000310559F7DF91CF910895209112233091FE
:10086000132394E0D90180E0EC91F0E0E55FFE4DC8
:1008700040814C938F5F14968430B1F791502F5F75
:100880003F4F9111EFCF0895E0911223F091132380
:1008900081819581918391859583958591878587C0
:1008A00082819285928382878681968596838687C8
:1008B0008381978593839385978797819387878390
:1008C0000895982F991F9927991F2BE1929F902D9A
:1008D0001124880F89270895209112233091132322
:1008E00094E0D90180E0EC91F0E0E55FFF4D4081BC
:1008F0004C938F5F14968430B1F791502F5F3F4F28
:100900009111EFCF0895E0911223F0911323858583
:100910009185958795819187918195838183828146
:100920009285928382878681968596838687838146
:100930009781938393859783978593878787089576
:100940009F92AF92BF92CF92DF92EF92FF920F935E
:100950001F93CF93DF9380E00E940904BB24B394DC
:100960000E942D040E944404C0911223D0911323AD
:100970007E0180E1E80EF11CA88009818A2D802784
:100980001A81CB80912E9C24D82ED9240E946104F8
:100990008A258D258883802F81270E9461048027E6
:1009A000082F0D250983892D0E9461048127182FA6
:1009B0001D251A838A2D8C250E9461048C25D8263A
:1009C000DB822496CE15DF05B9F68B2D0E94090433
:1009D000B3948AE0B812C4CF0E942D040E9444044C
:1009E0008AE0DF91CF911F910F91FF90EF90DF9000
:1009F000CF90BF90AF909F900C9409048093602299
:100A0000909361220C94610380931223909313239B
:100A10000C94A004CF93DF93FA019C01205F3F4F19
:100A2000EC01A991CE01A193C217D307C9F7409356
:100A300012235093132360936022709361220E94CB
:100A40006103DF91CF910C94A0042F923F924F92BB
:100A50005F926F927F928F929F92AF92BF92CF924E
:100A6000DF92EF92FF920F931F93CF93DF9300D00B
:100A700000D0CDB7DEB75A019C01205F3F4FFA018D
:100A8000DC014D91CD0141932A173B07C9F7A09294
:100A90001223B092132360936022709361220E940C
:100AA00061038AE00E94090489E0382EF5017096FE
:100AB000EB83FC830E9483040E946C04832D0E94BC
:100AC00009048501D801BC91B983F801F181FA8349
:100AD000D8011296DC9012971396FC9089810E949F
:100AE0006104282E0E946104E82E0E946104882E71
:100AF0008A810E9461048D830E946104582E0E94A5
:100B00006104982E8D2D0E946104482E0E9461047C
:100B10008E830E946104C82E8F2D0E946104682E6E
:100B20000E946104782E0E946104922D9E259825D2
:100B3000BD819B279925EE819E279C259827FA81C8
:100B40009F279D259F25D8019C939D8198259525BC
:100B5000992594259C2597259827B9819B279D2524
:100B60009F25F80191839B2FFA819F27E824E92490
:100B70004E242E8124252C2526252827F226F926E9
:100B8000D8011296FC921297822485249824C924B5
:100B9000C6247C248725D826D9261396DC920C5FA0
:100BA0001F4FEB81FC81E017F10709F08BCF3A94DE
:100BB000311080CF0E9483040E946C0480E026964E
:100BC000CDBFDEBFDF91CF911F910F91FF90EF90CE
:100BD000DF90CF90BF90AF909F908F907F906F905D
:100BE0005F904F903F902F900C94090408950C94BF
:100BF000FE040C9404050895CF93DF93CDB7DEB7C0
:100C00006097CDBFDEBF80E1EBE0F2E2DE0111963E
:100C100001900D928A95E1F70E944B030E947A029F
:100C200081E0809301060E94F605CE0101960E94A4
:100C3000F70588E60E94B70285E60E94B7028CE6B7
:100C40000E94B7028CE60E94B7028FE60E94B702AC
:100C50008AE00E94B7020E94B10147E151E060E1E1
:100C600070E08BE60E948E014BE151E060E170E0A4
:100C700080E70E948E0141E151E060E070E088E78A
:100C80000E948E0143E151E062E170E08DE60E9436
:100C90008E018FEF90E00E94FB050E94EC01FDCFDA
:040CA000F894FFCFF6
:100CA4008D01020408102040801B3652096AD53099
:100CB40036A538BF40A39E81F3D7FB7CE339829BE2
:100CC4002FFF87348E4344C4DEE9CB547B9432A691
:100CD400C2233DEE4C950B42FAC34E082EA1662862
:100CE400D924B2765BA2496D8BD12572F8F664865D
:100CF400689816D4A45CCC5D65B6926C704850FDBF
:100D0400EDB9DA5E154657A78D9D8490D8AB008C5B
:100D1400BCD30AF7E45805B8B34506D02C1E8FCAD5
:100D24003F0F02C1AFBD0301138A6B3A9111414FCA
:100D340067DCEA97F2CFCEF0B4E67396AC7422E7A0
:100D4400AD3585E2F937E81C75DF6E47F11A711D80
:100D540029C5896FB7620EAA18BE1BFC563E4BC646
:100D6400D279209ADBC0FE78CD5AF41FDDA83388EF
:100D740007C731B11210592780EC5F60517FA91960
:100D8400B54A0D2DE57A9F93C99CEFA0E03B4DAE8B
:100D94002AF5B0C8EBBB3C83539961172B047EBA88
:100DA40077D626E169146355210C7D637C777BF249
:100DB4006B6FC53001672BFED7AB76CA82C97DFA4B
:100DC4005947F0ADD4A2AF9CA472C0B7FD932636A8
:100DD4003FF7CC34A5E5F171D8311504C723C31806
:100DE40096059A071280E2EB27B27509832C1A1B29
:100DF4006E5AA0523BD6B329E32F8453D100ED2081
:100E0400FCB15B6ACBBE394A4C58CFD0EFAAFB4346
:100E14004D338545F9027F503C9FA851A3408F92E2
:100E24009D38F5BCB6DA2110FFF3D2CD0C13EC5F7C
:100E3400974417C4A77E3D645D197360814FDC221B
:100E44002A908846EEB814DE5E0BDBE0323A0A499B
:100E540006245CC2D3AC629195E479E7C8376D8D02
:100E6400D54EA96C56F4EA657AAE08BA78252E1CDC
:100E7400A6B4C6E8DD741F4BBD8B8A703EB56648C8
:100E840003F60E613557B986C11D9EE1F8981169C4
:100E9400D98E949B1E87E9CE5528DF8CA1890DBF7E
:100EA400E6426841992D0FB054BB162B7E151628C7
:100EB400AED2A6ABF7158809CF4F3C30313233346C
:0C0EC4003536373839414243444546007A
:00000001FF
